{
  "_format": "hh-sol-artifact-1",
  "contractName": "FarmerCertification",
  "sourceName": "contracts/FarmerCertification.sol",
  "abi": [
    {
      "inputs": [],
      "stateMutability": "nonpayable",
      "type": "constructor"
    },
    {
      "inputs": [],
      "name": "CertificateIdAlreadyUsed",
      "type": "error"
    },
    {
      "inputs": [],
      "name": "InvalidParameters",
      "type": "error"
    },
    {
      "inputs": [],
      "name": "Unauthorized",
      "type": "error"
    },
    {
      "anonymous": false,
      "inputs": [
        {
          "indexed": true,
          "internalType": "address",
          "name": "oldAdmin",
          "type": "address"
        },
        {
          "indexed": true,
          "internalType": "address",
          "name": "newAdmin",
          "type": "address"
        }
      ],
      "name": "AdminChanged",
      "type": "event"
    },
    {
      "anonymous": false,
      "inputs": [
        {
          "indexed": false,
          "internalType": "string",
          "name": "certificateId",
          "type": "string"
        },
        {
          "indexed": false,
          "internalType": "string",
          "name": "farmerId",
          "type": "string"
        },
        {
          "indexed": false,
          "internalType": "uint256",
          "name": "expiryDate",
          "type": "uint256"
        }
      ],
      "name": "CertificateIssued",
      "type": "event"
    },
    {
      "anonymous": false,
      "inputs": [
        {
          "indexed": false,
          "internalType": "string",
          "name": "certificateId",
          "type": "string"
        },
        {
          "indexed": false,
          "internalType": "string",
          "name": "reason",
          "type": "string"
        }
      ],
      "name": "CertificateRevoked",
      "type": "event"
    },
    {
      "inputs": [],
      "name": "admin",
      "outputs": [
        {
          "internalType": "address",
          "name": "",
          "type": "address"
        }
      ],
      "stateMutability": "view",
      "type": "function"
    },
    {
      "inputs": [
        {
          "internalType": "string",
          "name": "",
          "type": "string"
        }
      ],
      "name": "certificates",
      "outputs": [
        {
          "internalType": "bool",
          "name": "isValid",
          "type": "bool"
        },
        {
          "internalType": "uint256",
          "name": "issuedAt",
          "type": "uint256"
        },
        {
          "internalType": "uint256",
          "name": "expiryDate",
          "type": "uint256"
        },
        {
          "internalType": "string",
          "name": "aadharHash",
          "type": "string"
        },
        {
          "internalType": "string",
          "name": "certificateHash",
          "type": "string"
        },
        {
          "internalType": "string",
          "name": "farmerId",
          "type": "string"
        },
        {
          "internalType": "string",
          "name": "farmerName",
          "type": "string"
        }
      ],
      "stateMutability": "view",
      "type": "function"
    },
    {
      "inputs": [
        {
          "internalType": "address",
          "name": "_newAdmin",
          "type": "address"
        }
      ],
      "name": "changeAdmin",
      "outputs": [],
      "stateMutability": "nonpayable",
      "type": "function"
    },
    {
      "inputs": [
        {
          "internalType": "string",
          "name": "_certificateId",
          "type": "string"
        },
        {
          "internalType": "string",
          "name": "_farmerId",
          "type": "string"
        },
        {
          "internalType": "string",
          "name": "_farmerName",
          "type": "string"
        },
        {
          "internalType": "string",
          "name": "_aadharHash",
          "type": "string"
        },
        {
          "internalType": "string",
          "name": "_certificateHash",
          "type": "string"
        }
      ],
      "name": "issueCertificate",
      "outputs": [],
      "stateMutability": "nonpayable",
      "type": "function"
    },
    {
      "inputs": [
        {
          "internalType": "string",
          "name": "_certificateId",
          "type": "string"
        },
        {
          "internalType": "string",
          "name": "_reason",
          "type": "string"
        }
      ],
      "name": "revokeCertificate",
      "outputs": [],
      "stateMutability": "nonpayable",
      "type": "function"
    },
    {
      "inputs": [
        {
          "internalType": "string",
          "name": "_certificateId",
          "type": "string"
        }
      ],
      "name": "verifyCertificateById",
      "outputs": [
        {
          "internalType": "bool",
          "name": "isValid",
          "type": "bool"
        },
        {
          "internalType": "string",
          "name": "farmerId",
          "type": "string"
        },
        {
          "internalType": "string",
          "name": "farmerName",
          "type": "string"
        },
        {
          "internalType": "uint256",
          "name": "expiryDate",
          "type": "uint256"
        }
      ],
      "stateMutability": "view",
      "type": "function"
    }
  ],
  "bytecode": "0x608060405234801561001057600080fd5b50600080546001600160a01b03191633179055610f2e806100326000396000f3fe608060405234801561001057600080fd5b50600436106100625760003560e01c806335318158146100675780638f2839701461007c5780638f2b91ea1461008f578063bc4f5bad146100be578063c2a5a103146100d1578063f851a440146100f4575b600080fd5b61007a610075366004610c2d565b61011f565b005b61007a61008a366004610b63565b610322565b6100a261009d366004610b91565b6103e8565b6040516100b59796959493929190610d80565b60405180910390f35b61007a6100cc366004610bcc565b610658565b6100e46100df366004610b91565b610733565b6040516100b59493929190610d41565b600054610107906001600160a01b031681565b6040516001600160a01b0390911681526020016100b5565b6000546001600160a01b03163314610149576040516282b42960e81b815260040160405180910390fd5b8451158061015657508351155b1561017457604051630e52390960e41b815260040160405180910390fd5b8151158061018157508051155b1561019f57604051630e52390960e41b815260040160405180910390fd5b6001856040516101af9190610d25565b9081526020016040518091039020600101546000146101e1576040516304f8a0f360e21b815260040160405180910390fd5b4260006101f2826301e13380610e53565b90506040518060e001604052806001151581526020018381526020018281526020018581526020018481526020018781526020018681525060018860405161023a9190610d25565b90815260408051602092819003830190208351815460ff191690151517815583830151600182015590830151600282015560608301518051919261028692600385019290910190610a43565b50608082015180516102a2916004840191602090910190610a43565b5060a082015180516102be916005840191602090910190610a43565b5060c082015180516102da916006840191602090910190610a43565b509050507f24a04857698b6d767a0b6c787412aaeba1015d94408ca75c0a32aff28c2074aa87878360405161031193929190610e1d565b60405180910390a150505050505050565b6000546001600160a01b0316331461034c576040516282b42960e81b815260040160405180910390fd5b6001600160a01b0381166103985760405162461bcd60e51b815260206004820152600f60248201526e496e76616c6964206164647265737360881b604482015260640160405180910390fd5b600080546001600160a01b038381166001600160a01b0319831681178455604051919092169283917f7e644d79422f17c01e4894b5f4f588d331ebfa28653d42ae832dc59e38c9798f9190a35050565b805160208183018101805160018083529383019290940191909120929052815490820154600283015460038401805460ff90941694929391929161042b90610ea7565b80601f016020809104026020016040519081016040528092919081815260200182805461045790610ea7565b80156104a45780601f10610479576101008083540402835291602001916104a4565b820191906000526020600020905b81548152906001019060200180831161048757829003601f168201915b5050505050908060040180546104b990610ea7565b80601f01602080910402602001604051908101604052809291908181526020018280546104e590610ea7565b80156105325780601f1061050757610100808354040283529160200191610532565b820191906000526020600020905b81548152906001019060200180831161051557829003601f168201915b50505050509080600501805461054790610ea7565b80601f016020809104026020016040519081016040528092919081815260200182805461057390610ea7565b80156105c05780601f10610595576101008083540402835291602001916105c0565b820191906000526020600020905b8154815290600101906020018083116105a357829003601f168201915b5050505050908060060180546105d590610ea7565b80601f016020809104026020016040519081016040528092919081815260200182805461060190610ea7565b801561064e5780601f106106235761010080835404028352916020019161064e565b820191906000526020600020905b81548152906001019060200180831161063157829003601f168201915b5050505050905087565b6000546001600160a01b03163314610682576040516282b42960e81b815260040160405180910390fd5b6001826040516106929190610d25565b908152602001604051809103902060010154600014156106c557604051630e52390960e41b815260040160405180910390fd5b60006001836040516106d79190610d25565b908152604051908190036020018120805492151560ff19909316929092179091557f7ffd0d20d9e5e7a22b657aee97c6b597b816034977d2e0e21fe8d203e86109b4906107279084908490610def565b60405180910390a15050565b600060608060008060018660405161074b9190610d25565b90815260408051918290036020908101832060e084018352805460ff161515845260018101549184019190915260028101549183019190915260038101805460608401919061079990610ea7565b80601f01602080910402602001604051908101604052809291908181526020018280546107c590610ea7565b80156108125780601f106107e757610100808354040283529160200191610812565b820191906000526020600020905b8154815290600101906020018083116107f557829003601f168201915b5050505050815260200160048201805461082b90610ea7565b80601f016020809104026020016040519081016040528092919081815260200182805461085790610ea7565b80156108a45780601f10610879576101008083540402835291602001916108a4565b820191906000526020600020905b81548152906001019060200180831161088757829003601f168201915b505050505081526020016005820180546108bd90610ea7565b80601f01602080910402602001604051908101604052809291908181526020018280546108e990610ea7565b80156109365780601f1061090b57610100808354040283529160200191610936565b820191906000526020600020905b81548152906001019060200180831161091957829003601f168201915b5050505050815260200160068201805461094f90610ea7565b80601f016020809104026020016040519081016040528092919081815260200182805461097b90610ea7565b80156109c85780601f1061099d576101008083540402835291602001916109c8565b820191906000526020600020905b8154815290600101906020018083116109ab57829003601f168201915b5050505050815250509050806020015160001415610a0a5750506040805160208082018352600080835283519182019093528281529194509250905082610a3c565b80516000908015610a1f575081604001514211155b9050808260a001518360c001518460400151955095509550955050505b9193509193565b828054610a4f90610ea7565b90600052602060002090601f016020900481019282610a715760008555610ab7565b82601f10610a8a57805160ff1916838001178555610ab7565b82800160010185558215610ab7579182015b82811115610ab7578251825591602001919060010190610a9c565b50610ac3929150610ac7565b5090565b5b80821115610ac35760008155600101610ac8565b600082601f830112610aec578081fd5b813567ffffffffffffffff80821115610b0757610b07610ee2565b604051601f8301601f19908116603f01168101908282118183101715610b2f57610b2f610ee2565b81604052838152866020858801011115610b47578485fd5b8360208701602083013792830160200193909352509392505050565b600060208284031215610b74578081fd5b81356001600160a01b0381168114610b8a578182fd5b9392505050565b600060208284031215610ba2578081fd5b813567ffffffffffffffff811115610bb8578182fd5b610bc484828501610adc565b949350505050565b60008060408385031215610bde578081fd5b823567ffffffffffffffff80821115610bf5578283fd5b610c0186838701610adc565b93506020850135915080821115610c16578283fd5b50610c2385828601610adc565b9150509250929050565b600080600080600060a08688031215610c44578081fd5b853567ffffffffffffffff80821115610c5b578283fd5b610c6789838a01610adc565b96506020880135915080821115610c7c578283fd5b610c8889838a01610adc565b95506040880135915080821115610c9d578283fd5b610ca989838a01610adc565b94506060880135915080821115610cbe578283fd5b610cca89838a01610adc565b93506080880135915080821115610cdf578283fd5b50610cec88828901610adc565b9150509295509295909350565b60008151808452610d11816020860160208601610e77565b601f01601f19169290920160200192915050565b60008251610d37818460208701610e77565b9190910192915050565b8415158152608060208201526000610d5c6080830186610cf9565b8281036040840152610d6e8186610cf9565b91505082606083015295945050505050565b871515815286602082015285604082015260e060608201526000610da760e0830187610cf9565b8281036080840152610db98187610cf9565b905082810360a0840152610dcd8186610cf9565b905082810360c0840152610de18185610cf9565b9a9950505050505050505050565b604081526000610e026040830185610cf9565b8281036020840152610e148185610cf9565b95945050505050565b606081526000610e306060830186610cf9565b8281036020840152610e428186610cf9565b915050826040830152949350505050565b60008219821115610e7257634e487b7160e01b81526011600452602481fd5b500190565b60005b83811015610e92578181015183820152602001610e7a565b83811115610ea1576000848401525b50505050565b600181811c90821680610ebb57607f821691505b60208210811415610edc57634e487b7160e01b600052602260045260246000fd5b50919050565b634e487b7160e01b600052604160045260246000fdfea2646970667358221220022a006d81e5107b590d2ab17c2f3dc6cc5723b53d94d68360f7252a84f6416364736f6c63430008040033",
  "linkReferences": {},
  "deployedLinkReferences": {}
}